:100000000C94E3020C940B030C940B030C940B0361
:100010000C940B030C940B030C940B030C940B0328
:100020000C940B030C940B030C940B030C946104C1
:100030000C940B030C940B030C940B030C940B0308
:100040000C94260D0C940B030C94D70E0C94290FD2
:100050000C940B030C940B030C940B030C940B03E8
:100060000C940B030C940B0300000000003E5B4F4C
:100070005B3E3E6B4F6B3E1C3E7C3E1C183C7E3C08
:10008000181C577D571C1C5E7F5E1C00183C180016
:10009000FFE7C3E7FF0018241800FFE7DBE7FF30A6
:1000A000483A060E2629792926407F050507407F14
:1000B00005253F5A3CE73C5A7F3E1C1C08081C1C87
:1000C0003E7F14227F22145F5F005F5F06097F017D
:1000D0007F006689956A606060606094A2FFA29468
:1000E00008047E040810207E201008082A1C080836
:1000F0001C2A08081E101010100C1E0C1E0C303884
:100100003E3830060E3E0E06000000000000005F84
:1001100000000007000700147F147F14242A7F2AA0
:100120001223130864623649562050000807030062
:10013000001C2241000041221C002A1C7F1C2A08AE
:10014000083E080800807030000808080808000011
:1001500060600020100804023E5149453E00427F85
:10016000400072494949462141494D331814127FD4
:100170001027454545393C4A494931412111090774
:100180003649494936464949291E000014000000F5
:1001900040340000000814224114141414140041C7
:1001A00022140802015909063E415D594E7C121184
:1001B000127C7F494949363E414141227F414141BC
:1001C0003E7F494949417F090909013E4141517337
:1001D0007F0808087F00417F41002040413F017FA8
:1001E000081422417F404040407F021C027F7F0470
:1001F00008107F3E4141413E7F090909063E4151B9
:10020000215E7F09192946264949493203017F01A8
:10021000033F4040403F1F2040201F3F4038403FA9
:10022000631408146303047804036159494D4300BF
:100230007F4141410204081020004141417F0402F6
:10024000010204404040404000030708002054548D
:1002500078407F284444383844444428384444286B
:100260007F385454541800087E090218A4A49C78BE
:100270007F0804047800447D40002040403D007F1A
:100280001028440000417F40007C047804787C08FA
:100290000404783844444438FC18242418182424CE
:1002A00018FC7C08040408485454542404043F44B3
:1002B000243C4040207C1C2040201C3C4030403CE2
:1002C00044281028444C9090907C4464544C440042
:1002D00008364100000077000000413608000201A6
:1002E0000204023C2623263C1EA1A161123A404092
:1002F000207A385454555921555579412154547810
:1003000041215554784020545579400C1E527212A8
:100310003955555559395454545939555454580030
:1003200000457C410002457D420001457C40F029AA
:100330002429F0F0282528F07C54554500205454F9
:100340007C547C0A097F493249494932324848483D
:1003500032324A4848303A4141217A3A4240207884
:10036000009DA0A07D39444444393D4040403D3C7F
:1003700024FF2424487E4943662B2FFC2F2BFF09A2
:1003800029F620C0887E0903205454794100004496
:100390007D413048484A32384040227A007A0A0A81
:1003A000727D0D19317D2629292F282629292926F4
:1003B00030484D4020380808080808080808382F39
:1003C00010C8ACBA2F102834FA00007B00000814C3
:1003D0002A142222142A1408AA005500AAAA55AAEF
:1003E00055AA000000FF00101010FF00141414FFA5
:1003F000001010FF00FF1010F010F0141414FC0097
:100400001414F700FF0000FF00FF1414F404FC14A0
:100410001417101F10101F101F1414141F00101099
:1004200010F0000000001F101010101F101010100E
:10043000F010000000FF101010101010101010FF2E
:1004400010000000FF140000FF00FF00001F101745
:100450000000FC04F414141710171414F404F4002E
:1004600000FF00F714141414141414F700F71414F4
:1004700014171410101F101F141414F4141010F07B
:1004800010F000001F101F0000001F14000000FCEF
:10049000140000F010F01010FF10FF141414FF14DB
:1004A0001010101F00000000F010FFFFFFFFFFF012
:1004B000F0F0F0F0FFFFFF0000000000FFFF0F0F63
:1004C0000F0F0F38444438447C2A2A3E147E02021F
:1004D0000606027E027E0263554941633844443C6D
:1004E00004407E201E2006027E020299A5E7A599FF
:1004F0001C2A492A1C4C7201724C304A4D4D303036
:1005000048784830BC625A463D3E494949007E0120
:1005100001017E2A2A2A2A2A44445F444440514A3F
:10052000444040444A51400000FF0103E080FF0086
:100530000008086B6B083612362436060F090F06C2
:10054000000018180000001010003040FF010100EA
:100550001F01011E00191D1712003C3C3C3C00000D
:1005600000000000000000240027002A0000000016
:1005700000250028002B0000000000230026002991
:10058000000404040404040404020202020202033C
:100590000303030303010204081020408001020446
:1005A00008102001020408102000000007000201CA
:1005B0000000030406000000000000000000D40654
:1005C000620A9810CD0611241FBECFEFD8E0DEBF1F
:1005D000CDBF15E0A0E0B1E0E8E6FDE202C0059085
:1005E0000D92AE37B107D9F716E0AEE7B5E001C01E
:1005F0001D92A33FB107E1F715E0C4ECD5E004C0BC
:100600002297FE010E94A316CE3BD107C9F70E9494
:10061000EF100C94A7160C940000FB01DC0102C043
:1006200001900D9241505040D8F70895FB01DC0134
:1006300001900D920020E1F70895FC0180917E0564
:100640008C3090F480838F5F80937E05815090E0A2
:10065000FC01EE0FFF1FE80FF91FE158FA4F88EB7E
:100660009BE09283818308958FEF80830895FC013E
:1006700020812C30B8F58181992787FD909548E835
:1006800050E0481B590B440F551F440F551F64176A
:10069000750784F08281992787FD909548E552E09F
:1006A000481B590B440F551F440F551F64177507FE
:1006B0000CF4AB0142505040CA01AA2797FDA09507
:1006C000BA2F880F991FAA1FBB1F4FB7F89430E0AD
:1006D000F901EE0FFF1FE20FF31FE158FA4F92836B
:1006E00081834FBF0895AF92BF92CF92DF92EF9276
:1006F000FF920F931F93CF93DF93EC019B0182E056
:10070000603278070CF048C077FF03C020E030E08B
:1007100005C0653B710514F024EB30E000D000D03B
:10072000B901882777FD8095982F2981332727FDE8
:100730003095E8E8AE2EB12CA21AB30AAA0CBB1C65
:10074000AA0CBB1CCC24B7FCC094DC2CEA81FF278C
:10075000E7FDF09528E532E02E1B3F0B220F331FFB
:10076000220F331F442737FD4095542FEDB7FEB7B6
:10077000218332834383548320E030E040E050E023
:1007800004EBE02EF12C012D112D0E945F129B0134
:100790000F900F900F900F90CE01B9010E94370378
:1007A000DF91CF911F910F91FF90EF90DF90CF904D
:1007B000BF90AF900895CF92DF92EF92FF921F9378
:1007C000CF93DF93EC01162F7A01690188818C3079
:1007D00008F064C0862F61E00E94020E888190E0DC
:1007E000FC01EE0FFF1FE80FF91FE158FA4F1F73CE
:1007F0008081807C812B808380E292E08E199F092A
:1008000064E070E00E943D16698380E699E08C19EF
:100810009D0964E070E00E943D166A83A8818A2FDA
:100820006CE00E943116682F70E0AB01440F551F39
:10083000460F571F440F551F440F551F20E030E04F
:10084000C901840F951FFC01EE0FFF1FE80FF91F70
:10085000E158FA4F808186FD15C02F5F3F4F2C3045
:10086000310571F724C01092800082E080938100EE
:100870001092850010928400B19A80916F0082607E
:1008800080936F008A2F90E0FC01EE0FFF1FE80FAE
:10089000F91FE158FA4F8081806480838881DF915D
:1008A000CF911F91FF90EF90DF90CF900895672B2D
:1008B000D1F2E8CF40E252E020E639E00E94DB03CB
:1008C00008951F920F920FB60F9211242F933F930A
:1008D0004F935F936F937F938F939F93AF93BF9348
:1008E000EF93FF938091A30587FF05C010928500C9
:1008F000109284002BC02091A305332727FD30954B
:1009000080917E0590E02817390704F58091A305B2
:10091000992787FD9095FC01EE0FFF1FE80FF91F47
:10092000E158FA4F808186FF11C08091A305992775
:1009300087FD9095FC01EE0FFF1FE80FF91FE158AE
:10094000FA4F80818F7360E00E94410E8091A30571
:100950008F5F8093A3052091A305332727FD309552
:1009600080917E0590E0281739070CF04EC08091E9
:10097000A3058C300CF049C0209184003091850093
:100980008091A305992787FD9095FC01EE0FFF1F2D
:10099000E80FF91FE158FA4F81819281280F391F22
:1009A00030938900209388008091A305992787FDC3
:1009B0009095FC01EE0FFF1FE80FF91FE158FA4F69
:1009C000808186FF2BC08091A305992787FD909594
:1009D000FC01EE0FFF1FE80FF91FE158FA4F80816D
:1009E0008F7361E00E94410E19C080E49CE905C04C
:1009F0008091840090918500049690938900809363
:100A000088008FEF8093A30509C0809184009091A6
:100A10008500049680549C4940F3EACFFF91EF9102
:100A2000BF91AF919F918F917F916F915F914F9106
:100A30003F912F910F900FBE0F901F9018950F931D
:100A40001F93CF93DF93162FE90105E02CC04830A8
:100A5000F8F41A37E8F4242F30E03695322F2227A5
:100A600037952795512FE09FC00111242F5B3E4FF2
:100A7000BC016B5F7F4FFC01E859FF4FE491D90146
:100A8000A50FB11DEC935F5F01968617970799F745
:100A90001A5F812F90E08A37910514F04F5F10E0C4
:100AA000483020F42196E881EE2389F6DF91CF913A
:100AB0001F910F9108954830F0F46A37E0F450E048
:100AC0005695542F44275795479585E0289F9001C8
:100AD00011244F5B5E4FC9010596F901E859FF4F9C
:100AE000E491DA01A60FB11DEC936F5F2F5F3F4FCA
:100AF0002817390791F7089580E094E0E1E4F1E0E8
:100B0000DF019C011D9221503040E1F70895FF92D2
:100B10000F931F938C01F62EFC01848161E00E94EB
:100B2000410EF801828161E00E94410EF80184814A
:100B300060E00E94410EF8018081618141E02F2D2B
:100B40000E94950EF801848161E00E94410E1F9180
:100B50000F91FF900895FF920F931F938C01F62E33
:100B6000FC01848161E00E94410EF801828160E015
:100B70000E94410EF801848160E00E94410EF8015C
:100B80008081618141E02F2D0E94950EF8018481C2
:100B900061E00E94410E1F910F91FF9008950F9305
:100BA0001F93CF93DF938C0160E00E94AB05C801D7
:100BB00060E10E94AB05C80160E40E94AB05C1E49E
:100BC000D1E0C80169910E94870585E0C134D8074A
:100BD000C1F7DF91CF911F910F9108951F93CF938C
:100BE000DF93EC01162F888161E00E94020E89815B
:100BF00061E00E94020E8A8161E00E94020E8B81F8
:100C000061E00E94020E8C8161E00E94020E8B81E5
:100C100061E00E94410E61E070E080E090E00E949F
:100C20006E0D8B8160E00E94410E6AE070E080E012
:100C300090E00E946E0D8B8161E00E94410ECE011A
:100C40006EEA0E94AB05CE0165ED0E94AB05CE01B8
:100C500060E80E94AB05CE0168EA0E94AB05CE01B8
:100C60006FE30E94AB05CE0163ED0E94AB05CE01A0
:100C700060E00E94AB05CE0160E40E94AB05CE01AE
:100C80006DE80E94AB05113019F4CE0160E102C09D
:100C9000CE0164E10E94AB05CE0160E20E94AB058B
:100CA000CE0160E00E94AB05CE0161EA0E94AB0577
:100CB000CE0168EC0E94AB05CE016AED0E94AB0547
:100CC000CE0162E10E94AB05CE0161E80E94AB0556
:100CD000113019F4CE016FE902C0CE016FEC0E9411
:100CE000AB05CE0169ED0E94AB05113019F4CE01C0
:100CF00062E202C0CE0161EF0E94AB05CE016BED56
:100D00000E94AB05CE0160E40E94AB05CE0164EA0F
:100D10000E94AB05CE0166EA0E94AB05CE016FEAE8
:100D20000E94AB05DF91CF911F910895813091050D
:100D300031F56F5F7F4F81F584EA95E060E071E007
:100D40000E9466138CEA95E00E941D038FEA95E0ED
:100D50000E941D0382EB95E00E941D0385EB95E048
:100D60000E941D0388EB95E00E941D038BEB95E02C
:100D70000E941D038AEC95E00E941B0D0895892BAB
:100D800059F46F5F7F4F41F48AEC95E00E94180D93
:100D900084EA95E00E94B913089580E090E06FEF37
:100DA0007FEF0E949606089581E090E06FEF7FEF5D
:100DB0000E9496060895CF92DF92EF92FF920F93D2
:100DC0001F93CF93DF936C01FC01C481D58160E058
:100DD00070E00E94A812FC018081833209F067C193
:100DE000C60162E070E00E94A812FC01808183329B
:100DF00009F05DC1C730D10509F059C1C60166E0EF
:100E000070E00E94A812FC0180818A3209F04FC173
:100E1000C60161E070E00E94A812FC01808180336D
:100E20000CF439C1C60161E070E00E94A812FC0117
:100E3000808186330CF02FC1C60163E070E00E9410
:100E4000A812FC01E08084E6FE2DF8027001112456
:100E5000C60164E070E00E94A812FC0100818AE0F3
:100E6000080280011124C60165E070E00E94A8120A
:100E7000FC018081C82FDD27C7FDD095C05DD4411E
:100E8000CE0DDF1DC00FD11FC53BD10508F003C13A
:100E9000C60161E070E00E94A812FC0180818533E8
:100EA00021F4C234D10508F0F6C0C60161E070E05B
:100EB0000E94A812FC016081772767FD709560533E
:100EC00070408AEC95E0AE010E947D0CE1C0C60145
:100ED00063E070E00E94A812FC0180818A3209F070
:100EE000F0C0C430D10509F0ECC0C60161E070E08B
:100EF0000E94A812FC0100818AE0080280011124EE
:100F0000C60162E070E00E94A812FC018081682F97
:100F1000772767FD709560517240600F711F6333D2
:100F2000710508F0B8C08AEC95E00E94590AB0C07B
:100F3000C60161E070E00E94A812FC0180818A3243
:100F400009F0C9C0C230D10509F0C5C08AEC95E0EE
:100F50000E940D0A9DC0C60161E070E00E94A812C7
:100F6000FC018081833209F0C0C0C60162E070E0FC
:100F70000E94A812FC0180818A3209F0B6C0C330F9
:100F8000D10509F0B2C08AEC95E00E94720A80C0D7
:100F9000C60162E070E00E94A812FC0180818332E9
:100FA00009F079C0289709F076C0C60167E070E0C3
:100FB0000E94A812FC0180818A3209F06CC0C6012F
:100FC00061E070E00E94A812FC01808180330CF483
:100FD00062C0C60161E070E00E94A812FC0180813D
:100FE00086330CF058C0C60164E070E00E94A8127D
:100FF000FC01E08084E69E2D980270011124C60158
:1010000065E070E00E94A812FC0100818AE00802FD
:1010100080011124C60166E070E00E94A812FC0164
:101020008081C82FDD27C7FDD095C05DD441CE0D8E
:10103000DF1DC00FD11FC53BD10568F5C60161E0BA
:1010400070E00E94A812FC018081853019F4C2343E
:10105000D10508F5C60161E070E00E94A812FC010C
:101060000081112707FD109500531040C60163E071
:1010700070E00E94A812FC014081552747FD509561
:10108000405350408AEC95E0B8019E010E94370C15
:1010900021E030E002C020E030E0C901DF91CF91D3
:1010A0001F910F91FF90EF90DF90CF900895C601B0
:1010B00060E070E00E94A812FC018081833209F494
:1010C00006CFC60160E070E00E94A812FC0180819A
:1010D000833209F42DCFC60160E070E00E94A812AF
:1010E000FC018081833209F436CFC60160E070E0F4
:1010F0000E94A812FC018081833269F649CFEF92E9
:10110000FF920F931F93DF93CF9300D000D000D0B6
:10111000CDB7DEB701E07E010894E11CF11C36C0BA
:101120008CEC96E00E941F10182F833221F08091E2
:10113000AB05882341F084EA95E0612F0E942013DB
:101140000093AB0506C084EA95E060E071E00E9480
:101150007F131A3221F40093AA051092AB058091F7
:10116000AA05882399F0C70164EA75E00E94AF13CD
:10117000C7010E94DB06C7010E94B9131092AA059D
:1011800084EA95E060E071E00E947F138CEC96E0C9
:101190000E94EB0F892B21F626960FB6F894DEBF3E
:1011A0000FBECDBFCF91DF911F910F91FF90EF90B8
:1011B0000895CF93DF938AEC95E060E070E00E94A1
:1011C000330A9093BF058093BE058AEC95E061E0F9
:1011D00070E00E94330A9093C1058093C0058AECA9
:1011E00095E062E070E00E94330A9093C30580931B
:1011F000C2058AEC95E063E070E00E94330A9093A8
:10120000C5058093C4058AEC95E064E070E00E9417
:10121000330A9093C7058093C6058AEC95E065E094
:1012200070E00E94330A9093C9058093C805C0E01E
:10123000D0E06091BE057091BF058CEA95E00E94F8
:1012400073036091C0057091C1058FEA95E00E941B
:1012500073036091C2057091C30582EB95E00E9413
:1012600073036091C4057091C50585EB95E00E94FC
:1012700073036091C6057091C70588EB95E00E94E5
:1012800073036091C8057091C9058BEB95E00E94CE
:1012900073038AEC95E00E94540AA0E0B0E0BC0120
:1012A000CD010E946E0D2196C431D10511F6DF915A
:1012B000CF9108954F925F926F927F928F929F92FB
:1012C000AF92BF92CF92DF92EF92FF920F931F9354
:1012D0008CEC96E040E855E260E070E00E94640F1C
:1012E0005CEAE52E55E0F52EC70162E070E00E9451
:1012F0005A044FEAC42E45E0D42EC60163E070E0E4
:101300000E945A0432EBA32E35E0B32EC50164E0EF
:1013100070E00E945A0425EB822E25E0922EC40133
:1013200065E070E00E945A0498EB692E95E0792EF2
:10133000C30166E070E00E945A048BEB482E85E002
:10134000582EC20167E070E00E945A040AEC15E0D2
:10135000C801B8010E949B0C80E090E0A0E0BFE3D0
:101360008093E2059093E305A093E405B093E5052F
:101370008093EA059093EB05A093EC05B093ED05FF
:101380008093E6059093E705A093E805B093E905FF
:10139000C80160E070E00E94330ABC01C7010E94EE
:1013A0007303C80161E070E00E94330ABC01C6010A
:1013B0000E947303C80162E070E00E94330ABC011E
:1013C000C5010E947303C80163E070E00E94330A04
:1013D000BC01C4010E947303C80164E070E00E9474
:1013E000330ABC01C3010E947303C80165E070E0C9
:1013F0000E94330ABC01C2010E9473031F910F9126
:10140000FF90EF90DF90CF90BF90AF909F908F9024
:101410007F906F905F904F9008950F931F93CF939D
:10142000DF938C01C0E0D0E0FE01E35BFA4F608106
:101430007181FE01E75AFA4F71836083882777FD37
:101440008095982F0E94D715F8016193719381932D
:1014500091938F012296CC30D10531F7DF91CF9156
:101460001F910F910895FB01EE0FFF1FDF01AF5B8E
:10147000BA4F8D919C911197E75AFA4F0190F081E4
:10148000E02D8E179F0741F0E817F90714F4019734
:1014900001C001968D939C93FB01EE0FFF1FEF5B44
:1014A000FA4F80819181089580916505909166053C
:1014B000089582E390E0861B970B909366058093D6
:1014C000650508958CE0809336068AE080933706A0
:1014D0008BE0809338068DE08093390689E0809315
:1014E0003A0608950F931F93CF93DF938CEC96E009
:1014F00061E071E00E944C1209E515E0C0E0D0E027
:101500008CEC96E06BE071E00E9449128CEC96E066
:10151000BE014AE050E00E9436128CEC96E06DE08D
:1015200071E00E944912F801619171918F018CEC78
:1015300096E04AE050E00E9436128CEC96E06FE0B4
:1015400071E00E9449122196C630D105C9F68CEC93
:1015500096E061E171E00E9449128CEC96E064E152
:1015600071E00E944C1201E415E0C0E0D0E08CEC88
:1015700096E06BE071E00E9449128CEC96E0BE01AF
:101580004AE050E00E9436128CEC96E06DE071E08B
:101590000E944912F801619171918F018CEC96E0E3
:1015A0004AE050E00E9436128CEC96E06FE071E069
:1015B0000E9449122196C630D105C9F68CEC96E0FE
:1015C00061E171E00E9449128CEC96E06AE171E001
:1015D0000E94491262E370E0809165059091660572
:1015E000681B790B8CEC96E04AE050E00E94D91120
:1015F0008CEC96E00E942A11DF91CF911F910F9100
:1016000008950F931F9306E316E08091590590917A
:101610005A0564E670E00E943D16262F205DC80141
:101620006EE142E00E945B058091590590915A0558
:101630006AE070E00E943D16CB016AE070E00E9413
:101640003D16282F205DC80164E242E00E945B0540
:101650008091590590915A056AE070E00E943D160C
:10166000282F205DC8016AE242E00E945B0580915C
:101670005B0590915C0564E670E00E943D16262FA4
:10168000205DC8016EE143E00E945B0580915B052F
:1016900090915C056AE070E00E943D16CB016AE023
:1016A00070E00E943D16282F205DC80164E243E0EF
:1016B0000E945B0580915B0590915C056AE070E09B
:1016C0000E943D16282F205DC8016AE243E00E9477
:1016D0005B0580915D0590915E0564E670E00E9477
:1016E0003D16262F205DC8016EE144E00E945B0597
:1016F00080915D0590915E056AE070E00E943D1664
:10170000CB016AE070E00E943D16282F205DC801E1
:1017100064E244E00E945B0580915D0590915E0566
:101720006AE070E00E943D16282F205DC8016AE241
:1017300044E00E945B0580915F059091600564E63E
:1017400070E00E943D16262F205DC8016EE145E045
:101750000E945B0580915F05909160056AE070E0F2
:101760000E943D16CB016AE070E00E943D16282FD2
:10177000205DC80164E245E00E945B0580915F0541
:10178000909160056AE070E00E943D16282F205D70
:10179000C8016AE245E00E945B0580916105909175
:1017A000620564E670E00E943D16262F205DC801A8
:1017B0006EE146E00E945B058091610590916205B3
:1017C0006AE070E00E943D16CB016AE070E00E9482
:1017D0003D16282F205DC80164E246E00E945B05AB
:1017E00080916105909162056AE070E00E943D166B
:1017F000282F205DC8016AE246E00E945B058091C7
:1018000063059091640564E670E00E943D16262F02
:10181000205DC8016EE147E00E945B058091630591
:10182000909164056AE070E00E943D16CB016AE089
:1018300070E00E943D16282F205DC80164E247E059
:101840000E945B0580916305909164056AE070E0F9
:101850000E943D16282F205DC8016AE247E00E94E1
:101860005B05C8010E94CF051F910F910895CF938A
:10187000DF93EC01DB01FB01EE0FFF1F452B39F479
:10188000E75AFA4F80819181820F931F06C0E75A71
:10189000FA4F80819181821B930B91838083FD019C
:1018A000EE0FFF1FE75AFA4F80819181853B91052A
:1018B00024F084EB90E091838083FD01EE0FFF1F05
:1018C000E75AFA4F8081918197FF02C011821082FE
:1018D00080916305909164058234910544F0AA0FCC
:1018E000BB1FA75ABA4F81E490E08D939C93CE0121
:1018F0000E94010BDF91CF9108959C01FB01EE0F37
:10190000FF1FE75AFA4F51834083453B510524F0AE
:1019100084EB90E091838083FB01EE0FFF1FE75A79
:10192000FA4F8081918197FF02C011821082C90114
:101930000E94010B08950F931F93CF93DF93EC0147
:101940008B0120E030E0F901E35BFA4F8081918167
:10195000F901EF5BFA4F91838083F901E75AFA4F5F
:10196000918380832E5F3F4F2C30310561F786E3F2
:1019700096E062E00E94EE0586E396E00E947C0518
:1019800086E396E060E040E021E231E00E941F053E
:1019900086E396E06EE140E026E231E00E941F051A
:1019A00086E396E062E440E02BE231E00E941F050E
:1019B00086E396E060E042E02FE231E00E941F05FE
:1019C00086E396E060E043E022E331E00E941F05F9
:1019D00086E396E060E044E025E331E00E941F05E5
:1019E00086E396E060E045E028E331E00E941F05D1
:1019F00086E396E060E046E02BE331E00E941F05BD
:101A000086E396E060E047E02EE331E00E941F05A8
:101A100086E396E00E94CF05CE010E94010BCE0125
:101A2000B8010E94200DDF91CF911F910F91089571
:101A30000E941F0D08950E941E0D08950895089597
:101A40008CE6DB011D928A95E9F708951F920F92AB
:101A50000FB60F9211242F933F938F939F93AF93C1
:101A6000BF9380913F0690914006A0914106B091AE
:101A70004206309143060196A11DB11D232F2D5F13
:101A80002D3720F02D570196A11DB11D209343063F
:101A900080933F0690934006A0934106B093420680
:101AA00080913B0690913C06A0913D06B0913E0688
:101AB0000196A11DB11D80933B0690933C06A09317
:101AC0003D06B0933E06BF91AF919F918F913F919C
:101AD0002F910F900FBE0F901F9018959B01AC0196
:101AE0007FB7F89480913B0690913C06A0913D060B
:101AF000B0913E0666B5A89B05C06F3F19F00196F0
:101B0000A11DB11D7FBFBA2FA92F982F8827860F3F
:101B1000911DA11DB11D62E0880F991FAA1FBB1F57
:101B20006A95D1F7BC012DC0FFB7F89480913B06B0
:101B300090913C06A0913D06B0913E06E6B5A89B6B
:101B400005C0EF3F19F00196A11DB11DFFBFBA2FCF
:101B5000A92F982F88278E0F911DA11DB11DE2E09E
:101B6000880F991FAA1FBB1FEA95D1F7861B970BF9
:101B7000885E9340C8F22150304040405040685148
:101B80007C4F211531054105510571F60895789472
:101B900084B5826084BD84B5816084BD85B5826072
:101BA00085BD85B5816085BDEEE6F0E08081816010
:101BB0008083E1E8F0E01082808182608083808110
:101BC00081608083E0E8F0E0808181608083E1EBE8
:101BD000F0E0808184608083E0EBF0E080818160D0
:101BE0008083EAE7F0E08081846080838081826086
:101BF000808380818160808380818068808310926F
:101C0000C1000895CF93DF93482F50E0CA018B564F
:101C10009A4FFC0134914F575A4FFA01849188230F
:101C200069F190E0880F991FFC01ED59FA4FA591D9
:101C3000B491FC01E359FA4FC591D491662351F454
:101C40002FB7F8948C91932F909589238C9388814A
:101C500089230BC0623061F42FB7F8948C91932FD5
:101C6000909589238C938881832B88832FBF06C00E
:101C70009FB7F8948C91832B8C939FBFDF91CF916A
:101C80000895482F50E0CA0187559A4FFC012491CE
:101C9000CA018B569A4FFC0194914F575A4FFA0143
:101CA0003491332309F440C0222351F1233071F0E1
:101CB000243028F42130A1F0223011F514C0263050
:101CC000B1F02730C1F02430D9F404C080918000F5
:101CD0008F7703C0809180008F7D8093800010C03B
:101CE00084B58F7702C084B58F7D84BD09C0809193
:101CF000B0008F7703C08091B0008F7D8093B000DB
:101D0000E32FF0E0EE0FFF1FE359FA4FA591B491D6
:101D10002FB7F894662321F48C919095892302C003
:101D20008C91892B8C932FBF0895BF92CF92DF9215
:101D3000EF92FF920F931F93CF93DF93E82EF62E2F
:101D4000B42EC7E0D0E0022F10E087E0C82ED12CDF
:101D5000BB2059F4B6016C1B7D0BC80102C09595E0
:101D600087956A95E2F7BC0107C0B8010C2E02C046
:101D7000759567950A94E2F761708E2D0E94410E69
:101D80008F2D61E00E94410E8F2D60E00E94410E78
:101D900021979FEFCF3FD907D9F6DF91CF911F91C0
:101DA0000F91FF90EF90DF90CF90BF9008951F921A
:101DB0000F920FB60F9211242F933F934F938F934F
:101DC0009F93EF93FF938091C00082FD1DC04091CF
:101DD000C60020918406309185062F5F3F4F2F73F8
:101DE000307080918606909187062817390771F028
:101DF000E0918406F0918506EC5BF94F40833093C7
:101E000085062093840602C08091C600FF91EF9161
:101E10009F918F914F913F912F910F900FBE0F90F7
:101E20001F901895E091D806F091D906E05CFF4F1D
:101E30008191919120813181805C9F4F821B930B16
:101E400060E470E00E943D16892B11F00E947F082B
:101E500008951F920F920FB60F9211242F933F9364
:101E60008F939F93EF93FF932091C8063091C906FB
:101E70008091CA069091CB062817390731F48091DA
:101E8000C1008F7D8093C10014C0E091CA06F0911B
:101E9000CB06E857F94F20818091CA069091CB0676
:101EA00001968F7390709093CB068093CA0620930F
:101EB000C600FF91EF919F918F913F912F910F90CD
:101EC0000FBE0F901F901895AF92BF92DF92EF92C6
:101ED000FF920F931F93CF93DF93EC017A018B0155
:101EE000DD24403081EE580780E0680780E0780705
:101EF00011F0DD24D39491E0A92EB12CEC89FD8959
:101F0000DD2069F0C50108A002C0880F991F0A945E
:101F1000E2F7808360E079E08DE390E005C0108215
:101F200060E874E88EE190E0A80197010E945016E5
:101F30002150304040405040569547953795279561
:101F400080E12030380720F0DD2011F0DD24D6CFED
:101F5000E889F9893083EA89FB89208319A2EE890F
:101F6000FF89408121E030E0C9010C8C02C0880F5C
:101F7000991F0A94E2F7482B4083EE89FF8940813C
:101F8000C9010D8C02C0880F991F0A94E2F7482BF3
:101F90004083EE89FF894081C9010E8C02C0880F01
:101FA000991F0A94E2F7482B4083EE89FF898081CC
:101FB0000F8C02C0220F331F0A94E2F720952823CA
:101FC0002083DF91CF911F910F91FF90EF90DF90D1
:101FD000BF90AF900895DC011C96ED91FC911D9788
:101FE000E05CFF4F8191919120813181805C9F4F16
:101FF000821B930B60E470E00E943D160895DC01A3
:102000001C96ED91FC911D97E05CFF4F2081318182
:10201000E054F040DF01AE5BBF4F8D919C91119772
:102020002817390719F42FEF3FEF07C08D919C91C6
:10203000E80FF91F8081282F30E0C9010895DC01E5
:102040001C96ED91FC911D97E05CFF4F2081318142
:10205000E054F040DF01AE5BBF4F8D919C91119732
:102060002817390719F42FEF3FEF10C08D919C917D
:102070001197E80FF91F20818D919C91119701967E
:102080008F73907011969C938E9330E0C9010895E0
:10209000DC0191968C919197882339F05496ED91BB
:1020A000FC915597808186FFF9CF91961C920895F7
:1020B000CF93DF93EC01EE85FF85E05CFF4F20813D
:1020C0003181E054F0402F5F3F4F2F733070DF01BC
:1020D000AE5BBF4F8D919C91119728173907D1F3B3
:1020E000E05CFF4F80819181E054F040E80FF91FE0
:1020F0006083EE85FF85E05CFF4F31832083EE89AE
:10210000FF89208181E090E00F8C02C0880F991F29
:102110000A94E2F7282B208381E089A3EC89FD89CA
:1021200080818064808381E090E0DF91CF91089589
:102130001092CF061092CE0688EE93E0A0E0B0E0B9
:102140008093D0069093D106A093D206B093D30685
:1021500081E795E09093CD068093CC0684E496E0E9
:102160009093D9068093D80688E896E09093DB0692
:102170008093DA0685EC90E09093DD068093DC0690
:1021800084EC90E09093DF068093DE0680EC90E094
:102190009093E1068093E00681EC90E09093E30653
:1021A0008093E20682EC90E09093E5068093E4064B
:1021B00086EC90E09093E7068093E60684E08093B7
:1021C000E80683E08093E90687E08093EA0685E0ED
:1021D0008093EB0681E08093EC0608950895CF93F9
:1021E000DF930E94C70D0E94EE100E945A09C2E1BF
:1021F000DFE00E94D9082097E1F30E94120FF9CF87
:10220000CF92DF92EF92FF920F931F93CF93DF93C2
:102210007C016B018A01C0E0D0E00FC0D6016D9156
:102220006D01D701ED91FC910190F081E02DC70186
:102230000995C80FD91F015010400115110571F7FC
:10224000CE01DF91CF911F910F91FF90EF90DF9022
:10225000CF900895EF92FF920F931F938C01DC01B2
:10226000ED91FC910190F081E02D6DE009957C01EC
:10227000D801ED91FC910190F081E02DC8016AE058
:1022800009959C012E0D3F1DC9011F910F91FF90D3
:10229000EF900895CF93DF93EC016115710519F468
:1022A00020E030E00FC0DB010D900020E9F711972E
:1022B000A61BB70BE881F9810280F381E02DAD0107
:1022C00009959C01C901DF91CF9108954F925F92CA
:1022D0007F928F929F92AF92BF92CF92DF92EF92B6
:1022E000FF920F931F93DF93CF93CDB7DEB7A197E4
:1022F0000FB6F894DEBF0FBECDBF2C01742ECB01FC
:10230000223008F42AE019A231E2C32ED12CCC0EDF
:10231000DD1E822E9924AA24BB24672D752FA501CA
:1023200094010E94501679018A01C801B701A501E4
:1023300094010E941216472D461B0894C108D1082B
:102340004A3014F4405D01C0495CF6014083E11459
:10235000F1040105110521F07E2C5F2DC801DDCFB0
:10236000C201B6010E944A11A1960FB6F894DEBFD1
:102370000FBECDBFCF91DF911F910F91FF90EF90D6
:10238000DF90CF90BF90AF909F908F907F905F90A5
:102390004F900895DC012115310541F4ED91FC9138
:1023A0000190F081E02D642F099508950E94661137
:1023B0000895CF92DF92EF92FF920F931F936C01DB
:1023C0007B019A0100E010E0B801A7010E94CA1148
:1023D0008C01C6010E942A11080F191FC8011F9104
:1023E0000F91FF90EF90DF90CF900895CF92DF9202
:1023F000EF92FF920F931F93CF93DF93EC016A014B
:102400007B012115310541F4E881F9810190F081CA
:10241000E02D642F09951FC02A303105D1F477FFD4
:1024200017C0E881F9810190F081E02D6DE20995F6
:102430008C0144275527BA014C195D096E097F09A3
:10244000CE012AE00E9466119801280F391F04C0AE
:102450002AE00E9466119C01C901DF91CF911F9172
:102460000F91FF90EF90DF90CF900895EF92FF9241
:102470000F931F937B019A010027F7FC0095102F03
:10248000B801A7010E94F6111F910F91FF90EF90E4
:1024900008950E944A110895EF92FF920F931F939F
:1024A0007C010E944A118C01C7010E942A11080F69
:1024B000191FC8011F910F91FF90EF9008952F925F
:1024C0003F924F925F926F927F928F929F92AF92C4
:1024D000BF92CF92DF92EF92FF920F931F93DF9301
:1024E000CF93CDB7DEB73B014C0119012A016D89AD
:1024F0007E898F89988D6A197B098C099D09621ADA
:10250000730A840A950AA40193010E941216E21824
:10251000F30804091509A80197010E9472162A0DF3
:102520003B1D4C1D5D1DB901CA01CF91DF911F916B
:102530000F91FF90EF90DF90CF90BF90AF909F9062
:102540008F907F906F905F904F903F902F90089565
:10255000FC019B01848195816817790728F46081CB
:1025600071816115710529F41092EE066EEE76E028
:1025700002C0620F731FCB0108950F931F93CF9377
:10258000DF93EC018B016F5F7F4F888199810E94FF
:10259000F414009711F480E005C0998388831B83AD
:1025A0000A8381E0DF91CF911F910F910895CF931E
:1025B000DF93EC0188819981892B29F08A819B81A5
:1025C0008617970760F4CE010E94BD12882341F060
:1025D0008C819D81892B19F4E881F981108281E039
:1025E000DF91CF910895EF92FF920F931F93CF93B6
:1025F000DF93EC017B016C817D81E114F104C1F07A
:102600004115510599F08A01060F171FB8010E9464
:10261000D712882369F0888199812C813D81820FAE
:10262000931FB7010E9416031D830C8381E001C034
:1026300080E0DF91CF911F910F91FF90EF9008956F
:10264000DF93CF9300D0CDB7DEB769831A82BE0186
:102650006F5F7F4F41E050E00E94F3120F900F90A8
:10266000CF91DF910895CF93DF93EC018881998119
:10267000009711F00E945C14198218821D821C823E
:102680001B821A82DF91CF910895EF92FF920F93F0
:102690001F93CF93DF93EC017B018A01BA010E9463
:1026A000D712882321F4CE010E94331307C01D8363
:1026B0000C8388819981B7010E941603CE01DF91B6
:1026C000CF911F910F91FF90EF900895CF93DF93DB
:1026D000EC01198218821B821A821D821C826115EC
:1026E000710551F0DB010D900020E9F71197A61B51
:1026F000B70BAD010E944513DF91CF9108950F9361
:102700001F93182F092F6115710559F0DB010D90EA
:102710000020E9F71197A61BB70BAD010E944513E6
:1027200002C00E943313812F902F1F910F910895A3
:10273000CF93DF93EC01FB018617970761F060816F
:1027400071816115710529F0448155810E944513FD
:1027500002C00E943313CE01DF91CF910895FC0196
:102760001182108213821282158214820E949813A1
:102770000895FC01808191810E945C1408950F935B
:102780001F93CF93DF93BC018230910510F462E078
:1027900070E0E091F106F091F20640E050E0A0E038
:1027A000B0E024C08081918186179707D0F086170A
:1027B000970771F482819381109729F013969C9367
:1027C0008E9312972CC09093F2068093F10627C047
:1027D0004115510519F08417950718F48D01AC01C6
:1027E000EF01DF01828193819C01F9013097D1F6DD
:1027F00041155105F9F0CA01861B970B84309105EC
:1028000080F48A819B810115110521F0F8019383E1
:10281000828304C09093F2068093F106FE01329603
:1028200045C0FE01E80FF91F6193719302979983E8
:1028300088833CC08091EF069091F006892B41F48B
:102840008091690590916A059093F0068093EF0658
:1028500040916B0550916C054115510541F44DB700
:102860005EB78091670590916805481B590B2091D0
:10287000EF063091F00624173507B0F4CA01821B29
:10288000930B8617970780F0AB014E5F5F4F84175D
:10289000950750F0420F531F5093F0064093EF06F8
:1028A000F9016193719302C0E0E0F0E0CF01DF91A4
:1028B000CF911F910F910895CF93DF939C010097C3
:1028C00009F48FC0EC0122971B821A826091F106F5
:1028D0007091F2066115710581F488819981820FEA
:1028E000931F2091EF063091F0062817390739F52C
:1028F000D093F006C093EF0674C0DB0140E050E0D7
:10290000AC17BD0708F1BB83AA83FE012191319169
:10291000E20FF31FAE17BF0779F48D919C911197C9
:10292000280F391F2E5F3F4F3983288312968D91D0
:102930009C9113979B838A834115510571F4D09321
:10294000F206C093F1064DC012968D919C9113979B
:10295000AD01009711F0DC01D3CFDA011396DC93BF
:10296000CE931297FA0121913191E20FF31FCE1706
:10297000DF0769F488819981280F391F2E5F3F4F47
:10298000FA01318320838A819B8193838283E0E0F3
:10299000F0E0DB0112968D919C911397009719F04E
:1029A000BC01FD01F6CFAB014E5F5F4FDB018D91A6
:1029B0009C91840F951F2091EF063091F006281707
:1029C000390779F4309729F41092F2061092F10643
:1029D00002C013821282425050405093F00640933E
:1029E000EF06DF91CF9108956F927F928F929F9221
:1029F000AF92BF92CF92DF92EF92FF920F931F930D
:102A0000CF93DF938C01009729F4CB010E94BF1371
:102A10008C01BBC08EEFE82E8FEFF82EE00EF11E7A
:102A20004801860E971E8E149F0408F4ACC0D7018F
:102A30004D915C91119746175707B8F045305105F5
:102A400008F4A3C0CA0104978617970708F49DC02D
:102A500042505040461B570BF401419351936D93E4
:102A60007C93CF010E945C1490C05B01A41AB50A4C
:102A70003801640E751EA091F106B091F206E0E0F7
:102A8000F0E0CC24DD2447C0A615B705A9F5CD910B
:102A9000DC911197CE0102968A159B0568F1CE0153
:102AA0008A199B09029612962C91129713963C91C3
:102AB000059758F0F40122833383CA19DB09D183C7
:102AC000C083D7016D937C9309C04E5F5F4F4C0F5D
:102AD0005D1FF70151834083C901FC01C114D1047A
:102AE00031F0D6011396FC93EE9312974EC0F093FB
:102AF000F206E093F10649C08D919C911197E81779
:102B0000F90708F4FC016D0112968C911297139647
:102B10009C919C01D901109709F0B6CF8091EF06E6
:102B20009091F00686159705E9F4E617F707D0F4BB
:102B300020916B0530916C052115310541F42DB7BD
:102B40003EB78091670590916805281B390B821666
:102B50009306C8F49092F0068092EF06F701718315
:102B6000608313C0CB010E94BF13EC01009759F0A2
:102B7000D7014D915C91B8010E940D03C8010E94DC
:102B80005C148E0102C000E010E0C801DF91CF911B
:102B90001F910F91FF90EF90DF90CF90BF90AF907B
:102BA0009F908F907F906F900895E89409C097FB55
:102BB0003EF490958095709561957F4F8F4F9F4F14
:102BC0009923A9F0F92F96E9BB279395F695879558
:102BD00077956795B795F111F8CFFAF4BB0F11F41B
:102BE00060FF1BC06F5F7F4F8F4F9F4F16C08823C2
:102BF00011F096E911C0772321F09EE8872F762FF8
:102C000005C0662371F096E8862F70E060E02AF038
:102C10009A95660F771F881FDAF7880F9695879524
:102C200097F90895629FD001739FF001829FE00D94
:102C3000F11D649FE00DF11D929FF00D839FF00D3B
:102C4000749FF00D659FF00D9927729FB00DE11DE7
:102C5000F91F639FB00DE11DF91FBD01CF011124C4
:102C60000895991B79E004C0991F961708F0961BE8
:102C7000881F7A95C9F78095089597FB092E072636
:102C80000AD077FD04D049D006D000201AF4709500
:102C900061957F4F0895F6F7909581959F4F089520
:102CA000A1E21A2EAA1BBB1BFD010DC0AA1FBB1F50
:102CB000EE1FFF1FA217B307E407F50720F0A21BC2
:102CC000B30BE40BF50B661F771F881F991F1A942F
:102CD00069F760957095809590959B01AC01BD0159
:102CE000CF01089597FB092E05260ED057FD04D07D
:102CF000D7DF0AD0001C38F45095409530952195C7
:102D00003F4F4F4F5F4F0895F6F790958095709520
:102D100061957F4F8F4F9F4F0895AA1BBB1B51E1B9
:102D200007C0AA1FBB1FA617B70710F0A61BB70B3B
:102D3000881F991F5A95A9F780959095BC01CD01E0
:102D40000895EE0FFF1F0590F491E02D099415E012
:102D5000C4ECD5E004C0FE010E94A3162296C63C36
:082D6000D107C9F7F894FFCF79
:102D680000476F616C416E676C65004D003A00204A
:102D7800000D0A00416E676C650053706565643A22
:102D8800004D65736800676F616C006E6F77004D6A
:102D980030004D31004D32004D33004D34004D357B
:102DA800000000000000000000000000000000001B
:102DB800000000000000000000000000000000000B
:102DC80000000000000000000000000000000000FB
:102DD80000000000000000000000000000000000EB
:102DE80000000000000000000000000000000000DB
:102DF80000000000000000000000000000000000CB
:102E080000000000000000000000000000000000BA
:102E180000000000000000000000000000000000AA
:102E2800000000000000000000000000000000009A
:102E3800000000000000000000000000000000008A
:102E4800000000000000000000000000000000007A
:102E5800000000000000000000000000000000006A
:102E6800003E0A0A0A04001C2222221C001E201E00
:102E7800201E003E2A2A2A2A003E0A0A0A34003E58
:102E88002A2A2A2A003E2222221C000000000000D2
:102E98003E2A2A2A1400060830080600000000000E
:102EA800000000000000000000000000000000809A
:102EB80000004000004000008040402020100884AE
:102EC8007E0000000000000000000000000000007C
:102ED80000000000000000000000000000000000EA
:102EE80000000000000000000000000000000000DA
:102EF80000003E22221C0018342C0800282C341410
:102F0800003A0018A4A47C003C040438003E2222A5
:102F18001C003E04083E003C12123C000000000069
:102F2800000000000000000000200008000200006F
:102F3800F008048442221111182844840A1221C07E
:102F4800C10002000800208000000000000000000E
:102F58000000000000000000000000000000000069
:102F68000000000000000000000000000000000059
:102F78000000000000000000000000000000000049
:102F88000000000000000000000000000000000039
:102F98000000000080404020202020202000000069
:102FA80000000000000000480100000000000000D0
:102FB800071AA3C4484830201008888445422110C5
:102FC8000F00000000000000920000000000000058
:102FD80000000000000000000000000000008080E9
:102FE80080808000000000000000000080000000D9
:102FF8000000000000000000000000000080804089
:103008002060402020202010101070381808040478
:1030180002020101000000000000000000000000A2
:103028000000000000000002108000000000000006
:10303800FE416050880402020505081021A24428B8
:10304800F000000000000000240000000000000064
:1030580000000000000000000000001C0301010047
:10306800000000FF80C02030180CE67F2120C0003F
:1030780080E03020161E0604020E06020101000040
:103088000000000000000000000000000000000038
:103098000000000000000000000000000000000028
:1030A80000000000000000000000000200080020EE
:1030B8008043242810118A8CC44222A1111088044C
:1030C80043001000040001000000000000000000A0
:1030D80000000000000000000000000000000000E8
:1030E80000F01E07010000000006030000000101B7
:1030F80000000000000000000000000000000000C8
:1031080000000000000000000000000000000000B7
:1031180000000000000000000000000000000000A7
:103128000000000000000000000000000000000097
:103138003F10080402010000000000000000000029
:103148000000000000000000000000000000000077
:103158000000000000000000000000000000000067
:103168000E03000000000000000000000000000046
:103178000000000000000000000000000000000047
:103188000000000000000000000000000000000037
:103198000000000000000000000000000000000027
:1031A800005A00780000003C0063000A005A0078CA
:1031B8000000003C0063000A005A00780000003C50
:1031C8000063000A0001008000F306000000000010
:0E31D8000058100011EB0F1F10FF0F481000E1
:00000001FF
